:10000000B1C00000CAC00000C8C00000C6C00000E7
:10001000C4C00000C2C00000C0C00000BEC00000DC
:10002000BCC00000BAC00000B8C00000BDC20000E3
:10003000B4C00000B2C00000B0C00000AEC00000FC
:10004000ACC00000AAC00000A8C00000A6C000000C
:10005000A4C00000A2C00000A0C00000F9C00000C1
:100060009CC000009AC0000098C0000096C000002C
:1000700094C0000092C0000090C000008EC000003C
:100080008CC000008AC0000088C0000086C000004C
:1000900084C0000082C0000005010906A1017501AD
:1000A0009508050719E029E715002501810295014A
:1000B0007508810395057501050819012905910247
:1000C00095017503910395067508150026E700054F
:1000D00007190029E78100C0120110010000000883
:1000E000EB0340200100010200010902220001018E
:1000F00000C03209040000010301010009211101BF
:1001000000012240000705810308000104030904DF
:100110001C034D0069007200610063006C00650003
:100120005400680069006E0067007300000034032B
:100130004B006500790062006F006100720064008E
:100140002F0062007500740074006F006E002000C4
:1001500069006E0074006500720066006100630053
:100160006500000011241FBECFEFD2E0DEBFCDBF7F
:1001700011E0A0E0B1E0EEEDFCE002C005900D92D0
:10018000AE30B107D9F711E0AEE0B1E001C01D9289
:10019000AE3AB107E1F7ECD0A0C532CF089508958B
:1001A00080910B0190910C01009729F00197909399
:1001B0000C0180930B0108950F931F93CF93DF934E
:1001C000E8018FB7F8949091A3018FBF983048F160
:1001D000AEE0B1E06FE171E0E091A101F091A20128
:1001E0004191F093A201E093A101EF59F14021F474
:1001F0007093A2016093A1019FB7F8948091A3012D
:1002000081508093A3019FBF4D9381E0A631B80731
:1002100019F7909116018091C80085FFFCCF90934B
:10022000CE0040E050E0F901E40FF51FDA01A25FD3
:10023000BE4F8C9180834F5F5F4F4830510599F7D7
:100240005983488380E0DF91CF911F910F910895EA
:100250001F920F920FB60F9211242F938F939F939B
:10026000EF93FF939091CE008EB38430F1F4E09140
:100270009F01F091A0019083E0919F01F091A00176
:10028000CF0101969093A00180939F018F599140D7
:1002900021F48FE191E0928381839FB7F89480915C
:1002A000A3018F5F8093A3019FBFFF91EF919F9167
:1002B0008F912F910F900FBE0F901F90189580E097
:1002C00091E0B6D4E2EEF0E080818460808308950E
:1002D0009F92AF92BF92CF92DF92EF92FF920F93D5
:1002E0001F9384B7877F84BF28E10FB6F8942093CB
:1002F0006000109260000FBE4CECA42EB12C87E67B
:1003000090E0F501918380833AECC32ED12C96E0E6
:10031000992EF601908208EC10E0F801108289EC29
:10032000E82EF12CF7012083539A5A9A2ED184E0BB
:1003300085BD5F9A579AF7011082F8011082F60185
:1003400010828FEC90E0F50191838083F60190821A
:1003500082E0F801808388E9F70180831F910F9183
:10036000FF90EF90DF90CF90BF90AF909F90089557
:10037000AFDF2FB7F8948FE191E09093A0018093C5
:100380009F019093A2018093A1012FBF789480E0F8
:1003900091E095D382D3FBCFDA019330B1F0943062
:1003A00028F4913041F0923079F50AC0913211F180
:1003B000923251F524C0E8EDF0E022E130E028C0AF
:1003C000EAEEF0E022E230E023C0813049F08130F3
:1003D00018F08230C9F40AC0ECE0F1E0849103C067
:1003E000E0E1F1E08491282F30E012C0EEE2F1E08C
:1003F0008491F9CFECEFF0E029E030E009C0E8E9C2
:10040000F0E020E430E004C0E0E0F0E020E030E0A4
:10041000ED93FC93C9010895382F282F2CC0209309
:10042000E900231721F4762F942F50E006C0709135
:10043000EC009091ED005091F00091FF1BC0809175
:10044000EB008E7F8093EB008091ED0082708093B3
:10045000ED008091EB0081608093EB007093EC00E5
:100460009093ED005093F0008091EE0087FD02C064
:1004700080E008952F5F253090F23093E90081E00D
:1004800008958091A60188238CF403C08EB388233D
:10049000B1F08091E80082FFF9CF8091E8008B777E
:1004A0008093E80008958EB3882349F08091E80096
:1004B00080FFF9CF8091E8008E778093E80008955F
:1004C0004091E4005091E50024E68091EC0080FF2B
:1004D00005C08091E80080FF05C021C08091E80040
:1004E00082FD1DC08EB3882311F482E0089585300B
:1004F00011F483E008958091EB0085FF02C081E054
:1005000008958091E4009091E50084179507E9F241
:10051000222311F484E008952150AC01D6CF80E06D
:1005200008953CD03ED08091D800982F9F7790932B
:10053000D80080688093D8008091D8008F7D809308
:10054000D80084E089BD89B5826089BD09B400FE08
:10055000FDCF1EBA1092A40180E060E042E05CDFB3
:100560008091E1008E7F8093E1008091E2008160C4
:100570008093E2008091E20088608093E2008091A5
:10058000E0008E7F8093E0000895E3E6F0E0808154
:100590008E7F808381E08093A501C3CF1092E2001B
:1005A00008951092E10008951F920F920FB60F92D6
:1005B00011242F933F934F935F936F937F938F9368
:1005C0009F93AF93BF93EF93FF938091E10082FFDE
:1005D0000AC08091E20082FF06C08091E1008B7F1B
:1005E0008093E100DDDD8091E10080FF16C0809105
:1005F000E20080FF12C08091E2008E7F8093E200D3
:100600008091E20080618093E2008091D800806256
:100610008093D80019BC1EBAC2DD8091E10084FF2E
:100620002DC08091E20084FF29C084E089BD89B596
:10063000826089BD09B400FEFDCF8091D8008F7D16
:100640008093D8008091E1008F7E8093E1008091BB
:10065000E2008F7E8093E2008091E20081608093CF
:10066000E2008091A401882331F48091E30087FDAA
:1006700002C081E001C084E08EBB90DD8091E1008A
:1006800083FF21C08091E20083FF1DC08091E100C3
:10069000877F8093E10082E08EBB1092A40180915D
:1006A000E1008E7F8093E1008091E2008E7F809355
:1006B000E2008091E20080618093E20080E060E0EF
:1006C00042E0AADE38D1FF91EF91BF91AF919F91A7
:1006D0008F917F916F915F914F913F912F910F90EB
:1006E0000FBE0F901F9018950F931F93DF93CF931A
:1006F00000D0CDB7DEB78091F1008093A601809144
:10070000F1008093A7018091F1009091F100E8EA57
:10071000F1E08093A8019093A9018091F10090915C
:10072000F1008093AA0193838091F1009091F100F0
:100730008093AC019583FFD08091E80083FFE6C0F1
:100740008091A6019091A701953009F46DC0963073
:1007500040F4913081F1913070F0933009F0D6C0BF
:100760002AC0983009F4A5C0993009F4B4C0963075
:1007700009F0CCC07EC0803809F4C8C0823809F0C6
:10078000C5C08091AA0187708093E9008091EB0039
:100790001092E9002091E800277F2093E80090E084
:1007A00025E0969587952A95E1F781708093F10071
:1007B0001092F10089C0882319F0823009F0A6C098
:1007C0008F71823009F0A2C08091A801882331F591
:1007D0002091AA01277009F499C02093E900809123
:1007E000EB0080FF1BC0933021F48091EB0080620E
:1007F00013C08091EB0080618093EB0081E090E07A
:1008000002C0880F991F2A95E2F78093EA001092A0
:10081000EA008091EB0088608093EB001092E90081
:100820008091E800877F53C0882309F06FC0109142
:10083000A8011F770FB7F8948091E800877F809315
:10084000E8001FDE8091E80080FFFCCF8091E3008C
:100850008078812B8093E3008091E300806880930F
:10086000E300112311F482E001C083E08EBB0FBFCF
:100870004DC08058823008F049C08091A801909105
:10088000A9016091AA01AE014F5F5F4F85DDBC01F8
:10089000009709F43BC08091E800877F8093E800CF
:1008A00089819A8149D08091E8008B778093E80014
:1008B0002DC0803859F58091E800877F8093E8004B
:1008C0008091A4018093F1008091E8008E7780935D
:1008D000E800D7DD1BC08823C9F49091A8019230AD
:1008E000A8F48091E800877F8093E8009093A401AA
:1008F000C8DD8091A401882331F48091E30087FD55
:1009000002C081E001C084E08EBBD9DC8091E800A8
:1009100083FF0AC08091EB0080628093EB0080919E
:10092000E800877F8093E8000F900F90CF91DF91D0
:100930001F910F91089508959C014091AC01509131
:10094000AD014617570718F4F90190E03FC0611553
:10095000710511F0AB01F8CF8091E8008E7780939C
:10096000E80040E050E0F0CF8EB3882309F43FC0A8
:10097000853009F43EC08091E80083FF02C081E029
:1009800008958091E80082FD2CC08091E80080FFEE
:100990001DC08091F200282F30E008C08491809320
:1009A000F1003196415050402F5F3F4F41155105A6
:1009B00019F02830310590F390E02830310509F422
:1009C00091E08091E8008E778093E8004115510511
:1009D00059F6992349F605C08EB3882341F0853036
:1009E00041F08091E80082FFF7CF80E0089582E037
:1009F000089583E00895BF92CF92DF92EF92FF9225
:100A00000F931F93CF93DF93182F092F7B016A0158
:100A100057DDB82E8823B1F5812F902F9C01E90175
:100A2000C114D10439F0F60180819181E81AF90AE4
:100A3000C80FD91F00E010E022C08091E80085FDBA
:100A400016C08091E8008E778093E800C114D1042D
:100A500049F0F60180819181800F911F91838083FD
:100A600085E011C01AD02CDD882349F00CC0899193
:100A70008093F1000894E108F1080F5F1F4FE11423
:100A8000F104D9F68B2DDF91CF911F910F91FF903B
:100A9000EF90DF90CF90BF9008951F938EB388237F
:100AA00061F01091E9001092E9008091E80083FF65
:100AB00001C01ADE17701093E9001F9108954F923C
:100AC0005F926F927F928F929F92AF92BF92CF92DE
:100AD000DF92EF92FF920F931F93DF93CF9300D09B
:100AE0000F92CDB7DEB77C016DB67EB68EB3843083
:100AF00009F085C0F70181818093E9008091E800C9
:100B000085FF7DC05DB64EB647818DB79EB7841B0D
:100B100091090FB6F8949EBF0FBE8DBF0DB71EB7DB
:100B20000F5F1F4F19821B821A82C02E912EC8019F
:100B300060E070E050E0CAD0C701BE016F5F7F4F38
:100B400040E098018E010E5F1F4F36DB882EF701C3
:100B500081859285892B19F4AA24BB240BC020E03F
:100B6000F70183859485892B09F021E081E028270E
:100B7000A22EBB24F701058116810115110511F480
:100B8000DD2412C04A815B818C2D992DB80188D05B
:100B9000DD24009711F0DD24D394F7014781C801CB
:100BA0006C2D792D50E089D08A819B81892BF9F0B9
:100BB000882021F4DD2011F4AB28C9F0F7018185EC
:100BC00092859487838781818093E9008981882336
:100BD00011F08093F1006A817B818C2D992D40E08A
:100BE00050E009DF8091E8008E778093E800852D42
:100BF000942D9C010FB6F8943EBF0FBE2DBF0FB6CB
:100C0000F8947EBE0FBE6DBE0F900F900F90CF91E7
:100C1000DF911F910F91FF90EF90DF90CF90BF90E9
:100C2000AF909F908F907F906F905F904F900895BE
:100C3000CF93DF93DC010896FC0185E0EF01199268
:100C40008A95E9F781E018968C93189784EF91E0E4
:100C50001A969C938E93199711963C911197129620
:100C60006D917C91139714968C91882311F440E038
:100C700001C044E020E088E090E003C02F5F880FCF
:100C8000991F86179707D0F342602295207F422B49
:100C9000832F61ECC1DB811181E0DF91CF91089559
:100CA000FB01DC0104C08D910190801921F44150B9
:100CB0005040C8F7881B990B0895FB01DC0102C066
:100CC00001900D9241505040D8F70895DC0101C0C9
:0E0CD0006D9341505040E0F70895F894FFCF27
:0E0CDE000001080000170108000000000000DF
:00000001FF
